:020000040800F2
:100000002847002095010008990100089B0100087D
:100010009D0100089F010008A101000800000000E8
:10002000000000000000000000000000FD000008CB
:10003000A50100080000000041010008010F0008B0
:10004000AB010008AB010008AB010008AB010008E0
:10005000AB010008AB010008AB010008AB010008D0
:10006000AB010008AB010008AB010008AB010008C0
:10007000AB010008AB010008AB010008AB010008B0
:10008000AB010008AB010008AB010008AB010008A0
:10009000AB010008AB010008AB010008AB01000890
:1000A000AB010008AB010008AB010008AB01000880
:1000B00000000000AB010008AB010008AB01000824
:1000C000AB010008AB010008AB010008AB01000860
:1000D000AB010008AB010008AB010008AB01000850
:1000E000AB010008AB010008DFF80CD000F072F89B
:1000F00000480047F507000828470020224B1968F0
:100100000868B0E8F00F80F30988BFF36F8F4FF0F5
:10011000000080F311884EF00D0E704700000000C3
:1001200006480068006880F3088862B661B6BFF3CD
:100130004F8FBFF36F8F00DF00BF00BF08ED00E0FF
:10014000EFF30980BFF36F8F0F4B1A6820E9F00FB0
:10015000106008B54FF0BF0080F31188BFF34F8FD8
:10016000BFF36F8F00F082FE4FF0000080F3118824
:10017000BDE8084019680868B0E8F00F80F3098806
:10018000BFF36F8F704700BF00000020EFF30580C2
:100190007047000005480047FEE7FEE7FEE7FEE780
:1001A000FEE7FEE7FEE7FEE7FEE7FEE7E900000800
:1001B000D2B201E000F8012B491EFBD270470022A9
:1001C000F6E710B513460A4604461946FFF7F0FF56
:1001D000204610BD064C074D06E0E06840F00103E4
:1001E00094E8070098471034AC42F6D3FFF780FF3D
:1001F0009C120008BC1200082DE9F04102460025BF
:100200000026002000230024002791F803C00CF0F2
:100210000F0591F803C00CF0100CBCF1000F03D0D7
:1002200091F802C04CEA050591F800C0BCF1000F3E
:1002300031D0146800202AE04FF0010C0CFA00F3D2
:10024000B1F800C00CEA03069E421FD183004FF0B4
:100250000F0C0CFA03F7BC4305FA03FC4CEA040448
:1002600091F803C0BCF1280F05D14FF0010C0CFA36
:1002700000FCC2F814C091F803C0BCF1480F05D1CE
:100280004FF0010C0CFA00FCC2F810C0401C08280A
:10029000D2D314600024B1F800C0BCF1FF0F34DDEC
:1002A000546800202EE000F1080C4FF0010808FA15
:1002B0000CF3B1F800C00CEA03069E4221D1830082
:1002C0004FF00F0C0CFA03F7BC4305FA03FC4CEAA1
:1002D000040491F803C0BCF1280F05D100F1080C0B
:1002E00008FA0CF8C2F8148091F803C0BCF1480F6A
:1002F00007D100F1080C4FF0010808FA0CF8C2F819
:100300001080401C0828CED35460BDE8F0810AB1AB
:10031000016100E04161704702490143024A1160F6
:10032000704700000000FA050CED00E0044A02EA04
:10033000C112044B1A601A46126802431A607047D1
:1003400080FFFF1F08ED00E029B1064AD269024391
:10035000044BDA6104E0034AD2698243014BDA615B
:10036000704700000010024029B1064A926902431A
:10037000044B9A6104E0034A92698243014B9A61FB
:10038000704700000010024000201349C860086157
:100390001420486100208861C8610846006840F068
:1003A00001000860084640680C4908400A49486056
:1003B000084600680A49084007490860084600687E
:1003C00020F4802008600846406820F4FE00486061
:1003D0000020886070470000001002400000FFF815
:1003E000FFFFF6FE30B500210022002400232D4D32
:1003F0006D6805F00C0121B1042905D0082923D12D
:1004000005E0294D056022E0274D05601FE0254DE0
:100410006D6805F47012022505EB9242214D6D685E
:1004200005F480341CB9214D554305600BE01D4D8A
:100430006D6805F400351DB11C4D5543056002E0A3
:10044000194D5543056002E0174D056000BF00BF20
:10045000144D6D6805F0F0010909154D6B5C0568D8
:10046000DD4045600F4D6D6805F4E061090A104DEF
:100470006B5C4568DD4085600A4D6D6805F4605130
:10048000C90A0B4D6B5C4568DD40C560054D6D6864
:1004900005F44041890B074D6B5CC568B5FBF3F56E
:1004A000056130BD0010024000127A0000093D00D5
:1004B000881200089812000810B501460022002397
:1004C00000204A11012A02D1094C236806E0022AC1
:1004D00002D1074C236A01E0054C636A01F01F0258
:1004E000012494401C400CB1012000E0002010BD0C
:1004F000001002400248406800F00C007047000005
:100500000010024001460020034A506820F0F0002D
:10051000084350607047000000100240114909680C
:1005200021F480310F4A11601146096821F48021BD
:100530001160B0F5803F03D0B0F5802F0ED106E0FA
:100540000849096841F48031064A116007E005490D
:10055000096841F4A021034A116000E000BF00BF18
:10056000704700000010024001460020034A506816
:1005700020F4E06008435060704700000010024023
:1005800001460020034A506820F4605040EAC10050
:100590005060704700100240014908667047000033
:1005A0000000424202460020044B586820F47C10B0
:1005B00042EA01031843014B5860704700100240A3
:1005C00001460020034A506820F0030008435060B1
:1005D000704700000010024010B588B04FF4E134BD
:1005E000012144F20400FFF7BFFE4FF48060ADF834
:1005F000040004208DF8070001A91A48FFF7FCFD4C
:100600004FF40070ADF8040003208DF806001820A8
:100610008DF8070001A91348FFF7EEFD02940020B2
:10062000ADF80C00ADF80E00ADF81000ADF81200FA
:100630000C20ADF814000020ADF81600ADF818003D
:100640004FF40070ADF81A000020ADF81C0002A9AC
:10065000054800F045F80121034800F035F808B0DE
:1006600010BD00000008014000380140042808D1F6
:100670004FF0E021096941F004014FF0E0221161DF
:1006800007E04FF0E021096921F004014FF0E0227A
:100690001161704704E0012211020248FFF737FEA2
:1006A000F9E700000008014002E002A000F06EF847
:1006B000FBE700003200000002E002A000F066F854
:1006C000FBE700003300000021B1828942F40052B0
:1006D000828104E082894DF6FF731A40828170475F
:1006E0002DE9F04385B006460D460024A14600BF23
:1006F00000BF348A4CF2FF000440E888E9890843CF
:10070000298A0843698A0843A98A08430443348232
:100710000024B4894EF6F3100440A88829890843C0
:10072000A98908430443B4810024B48A4FF6FF40EA
:10073000044068890443B48200BF6846FFF752FE54
:100740001148864202D1DDF80C9001E0DDF80890F6
:1007500009EBC90000EB091029688900B0FBF1F72B
:100760006420B7FBF0F004012009642101FB10783C
:10077000322000EB0810B0FBF1F000F00F00044352
:10078000348105B0BDE8F08300380140014A0249D8
:1007900000F013B8DD0700085C00002002E008C884
:1007A000121F08C1002AFAD170477047002001E0EB
:1007B00001C1121F002AFBD170472DE9F0411646F6
:1007C0000F460446002503E03946B047641C6D1C03
:1007D00020780028F8D12846BDE8F0810A4604496F
:1007E00000BF0B8803F08003002BFAD0888070478D
:1007F000003801401FB501210420FFF7B5FD10208E
:100800008DF80B000001ADF8080003208DF80A00F8
:1008100002A91548FFF7F0FC00F09AF913A0FFF7C2
:10082000B5FF03A8012100236422CDE9001012A125
:10083000134800F07FFB0020012103466422CDE92C
:10084000001010A1114800F075FB002001210346A3
:100850006422CDE900100EA10F4800F06BFB00F000
:10086000C7FA002004B010BD0008014048656C6C58
:100870006F20776F726C64005461736B31000000FD
:10088000950600085461736B32000000A906000849
:100890005461736B33000000B906000810B50446BC
:1008A00000F04EFA2F480068401C2E4908602E4880
:1008B000006840B92C4804600846006801280DD142
:1008C00000F0FAF80AE02948006838B926480068BC
:1008D000C06AE16A884201D823480460244800685D
:1008E000401C2349086094F82C10012088402149BD
:1008F000096808431F490860E16A01EB81011E4A4B
:1009000002EB81014868A0608268E260211D826874
:1009100051608160E16A01EB8101174A02EB8102BB
:100920006261E16A01EB8101134A52F82110491C0E
:10093000E26A02EB8202104B43F8221000F012FA36
:100940000A48006868B108480068C06AE16A8842DD
:1009500007D24FF0805009490860BFF34F8FBFF3B3
:100960006F8F10BD10000020000000201C00002030
:100970002C000020180000206000002004ED00E0A2
:1009800010B516E000F0DCF90C48C068C468201D02
:1009900000F0B2F90A480068401E09490860094899
:1009A0000068401E0749086000F0DCF9204600F0AE
:1009B0000BF8044800680028E4D110BD00010020B5
:1009C000100000200C00002010B50446206B00F041
:1009D000D9F9204600F0D6F910BD00000A4A22F0ED
:1009E00007000A4A10600022084B5A6044F2F832AD
:1009F000074B5A6000221A60014644F2F8324A60FE
:100A00001A460A60704700002F01002044000020B1
:100A10004C00002000BFFFF7B3FF06480068012824
:100A2000F9D94FF0805004490860BFF34F8FBFF3EE
:100A30006F8FF0E76000002004ED00E02DE9FF5F1C
:100A400080460E469146DDE90E7A109CA9F1010020
:100A5000216B01EB800B2BF0070B7EB1002507E02B
:100A6000715D04F134004155705D00B902E06D1C08
:100A7000102DF5D300BF002143200155052F00D3D1
:100A80000427E762201D00F058F904F1180000F077
:100A900054F92461C7F10500A061646241465846DB
:100AA000039A00F017F92060BAF1000F01D0CAF8DC
:100AB0000040BDE8FF9F000010B5002407E004EBF4
:100AC00084010F4A02EB810000F02AF9641C052C16
:100AD000F5D30C4800F024F90B4800F021F90B483D
:100AE00000F01EF90A4800F01BF90A4800F018F956
:100AF00004480949086004480849086010BD00001E
:100B000060000020C4000020D8000020EC0000207D
:100B10000001002014010020040000200800002033
:100B200009480068006808B9012000E0002020B1F1
:100B30004FF0FF300549086005E003480068C068D1
:100B4000006802490860704704000020300000205F
:100B500010B5FFF719FC4FF48030FFF7DFFC00BF42
:100B60003120FFF7A9FC0028FAD002201C490860B8
:100B70000020FFF7C7FC0020FFF702FD4FF4806064
:100B8000FFF7F2FC4FF4E0114FF48030FFF70AFD5D
:100B90000120FFF701FD00BF3920FFF78DFC002881
:100BA000FAD00220FFF70CFD00BFFFF7A3FC0828D6
:100BB000FBD101217D20FFF7D7FB01218803FFF73F
:100BC000C3FB00210846FFF7B1FB4FF44070FFF76D
:100BD000A3FB0420FFF74AFDFFF7FEFC10BD000059
:100BE0000020024000BFBF2080F31188BFF34F8F69
:100BF000BFF36F8F00BF00BFFEE700002DE9F04795
:100C000005464FF0000900F029F92E48006820B988
:100C1000FFF7E4FE01202B49086075B105F00700DD
:100C2000C0F11008C8F1FF30A84201D2012000E055
:100C3000002008B9454400E00025012000EBE570E4
:100C400000283AD0002D38D01F480068854234D89B
:100C50001E4F3846046801E0274624686068A842B1
:100C600002D220680028F7D11948844225D038687C
:100C700000F10809206838606068401B102810D90E
:100C800066196068401B7060656071680F4800E01D
:100C90000068026852688A42FAD3026832600660CD
:100CA00000BF094960680968081A07490860606858
:100CB00040F0004060600020206000F037FA4846B5
:100CC000BDE8F087580000205400002044000020B8
:100CD0004C000020001F4FF080730360001F21F0C4
:100CE00001030360001F034B0360143802602038C7
:100CF00070470000E50B000801460A69D1E90130A0
:100D00009860D1E9010358605068884201D1886831
:100D10005060002008611068401E10601068704725
:100D200000F1080141604FF0FF31816000F10801DE
:100D3000C1600161002101607047002101617047BD
:100D400000BFBF2080F31188BFF34F8FBFF36F8FB9
:100D500000BF03480068401C01490860704700005C
:100D60004000002006480068401E0549086008460B
:100D7000006820B9002080F3118800BF00BF7047D1
:100D80004000002070B506463546FEB1083D2C46B1
:100D90006068C00FD0B12068C0B9606820F0004022
:100DA000606000F05BF86168094800E00068026874
:100DB00052688A42FAD3026822600460054960687A
:100DC000096808440349086000F0B0F970BD0000EC
:100DD000440000205400002000204FF0E021086172
:100DE0008861024848610720086170473F19010087
:100DF0001CB5124800210B468022CDE9001010A13D
:100E0000114800F097F80446012C14D100BFBF2010
:100E100080F31188BFF34F8FBFF36F8F00BF4FF088
:100E2000FF300A490860012009490860002009498B
:100E3000086000F04BF8084800681CBD3400002032
:100E400049444C4500000000150A0008300000200D
:100E50001C00002014000020380000200248006818
:100E6000401C0149086070473C000020124800689F
:100E700018B10120114908601DE000200F490860E9
:100E80000F480068B0FA80F0C0F11F0101EB810249
:100E90000C4B03EB820042685268426000F108028A
:100EA0004368934202D14268526842604268D26805
:100EB000054B1A6000BF70473C0000202400002052
:100EC00018000020600000200000002010B50A4833
:100ED000006840F47F00084908600846006840F058
:100EE0007F400860FFF778FF002004490860FFF7A3
:100EF00017F9002010BD000020ED00E040000020A8
:100F000010B500BFBF2080F31188BFF34F8FBFF330
:100F10006F8F00BF00F042F818B14FF080500449C5
:100F2000086000BF002080F3118800BF10BD0000E2
:100F300004ED00E02DE9FF4F85B080468946174655
:100F4000DDE912ABB800FFF759FE064676B14C203A
:100F5000FFF754FE04462CB14C212046FFF72FF931
:100F6000266304E03046FFF70DFF00E000247CB16B
:100F70000020CDE900ABCDE902403A464946404663
:100F8000089BFFF75BFD2046FFF788FC012501E089
:100F90004FF0FF35284609B0BDE8F08F2DE9F0414C
:100FA00000275748006800287ED156480068451C35
:100FB000544805608DB95448D0F800805348006803
:100FC000514908605148C0F8008051480068401CF1
:100FD0004F490860FFF7A4FD00BF4E4800688542F6
:100FE00076D300BF48480068006808B9012000E0D7
:100FF000002020B14FF0FF304649086067E04248CA
:101000000068C068C4686668B54202D2414806609C
:101010005DE06069D4E902128A60D4E902214A6085
:10102000211D42688A4201D1E1684160002262616B
:101030000168491E0160A06A98B1A06AD4E907124C
:101040008A60D4E907214A6004F1180142688A42A3
:1010500001D1216A41600022A2620168491E01603B
:1010600000BF94F82C10012088402B4909680843E0
:1010700029490860E16A01EB8101284A02EB8101FC
:101080004868A0608268E260211D826851608160CA
:10109000E16A01EB8101214A02EB81026261E16AAE
:1010A00001EB81011D4A00E022E052F82110491CA9
:1010B000E26A02EB8202194B43F822101849E06AF7
:1010C0000968C96A88428DD901278BE700E000BF13
:1010D00013480068C06A00EB8000104951F82000F6
:1010E000012800D901270F48006800B1012704E05A
:1010F0000D480068401C0C4908603846BDE8F08186
:101100003C00002014000020040000200800002003
:10111000280000203000002018000020600000207F
:1011200000000020240000202000002070B50024D2
:101130000026FFF705FE4B480068401E494908603D
:101140000846006800287DD147480068002879D00B
:101150005BE04648C068C468A06AD4E907128A60A8
:10116000D4E907214A6004F1180142688A4201D19A
:10117000216A41600022A2620168491E0160606923
:10118000D4E902128A60D4E902214A60211D426832
:101190008A4201D1E1684160002262610168491E12
:1011A000016094F82C1001208840314909680843F7
:1011B0002F490860E16A01EB81012E4A02EB8101AF
:1011C0004868A0608268E260211D82685160816089
:1011D000E16A01EB8101274A02EB81026261E16A67
:1011E00001EB8101234A52F82110491CE26A02EB0B
:1011F0008202204B43F822101F49E06A0968C96A3D
:10120000884202D301201D4908601848006808B9C7
:10121000012000E0002000289BD00CB1FFF780FCEB
:101220001748056865B100BFFFF7B8FE10B101208F
:10123000124908606D1E002DF6D10020104908608B
:101240000E4800E009E0006838B1012630070D497A
:101250000860BFF34F8FBFF36F8FFFF783FD3046FA
:1012600070BD00003C00002010000020EC000020B9
:101270001800002060000020000000202400002052
:101280002000002004ED00E0000000000102030443
:10129000010203040607080902040608BC1200083C
:1012A00000000020600000009C0700081C130008DC
:1012B00060000020C8460000AC07000800000000E5
:1012C000000000000000000000000000000000001E
:1012D000000000000000000000000000000000000E
:1012E00000000000000000000000000000000000FE
:1012F000000000000400000000000000AAAAAAAA42
:1013000000000000000000000000000000000000DD
:0C131000F8430000000000000000000096
:04000005080000E906
:00000001FF
